:020000040800F2
:10000000A8080020D9000008E1000008E30000086B
:1000100000000000000000000000000000000000E0
:10002000000000000000000000000000E5000008E3
:100030000000000000000000E7000008290E000892
:10004000EB000008EB000008EB000008EB000008E4
:10005000EB000008890A0008EB000008EB0000082C
:10006000EB000008EB000008EB000008EB000008C4
:10007000EB000008EB000008EB000008EB000008B4
:10008000EB000008EB00000800000000EB00000897
:10009000EB000008EB000008EB000008EB00000894
:1000A000EB000008EB000008EB000008D911000885
:1000B0002512000800000000EB000008000000000E
:1000C0000448854600F058FC00F07AF800480047E4
:1000D000CD2F0008A80800200448804704480047A6
:1000E000FEE7FEE7FEE7FEE7FEE7FEE7390E000863
:1000F000C100000830B50B46014600202022012433
:1001000009E00D46D5409D4205D31D469540491B4B
:100110002546954040191546521E002DF1DC30BD94
:1001200070B500242546002801DA01244042002948
:1001300001DA01254942FFF7DDFFAC4200D0404221
:10014000002C00D0494270BDD2B201E00270401CC8
:10015000491EFBD270470022F6E710B513460A4647
:1001600004461946FFF7F0FF204610BD421E521C00
:100170001378002BFBD10B781370491C521C002BF9
:10018000F9D1704710B5044605E00B780370401CA8
:10019000002B00D0491C521EF7D2204610BD421C35
:1001A0000178401C0029FBD1801A704703460A7869
:1001B0000270491C401C002AF9D118467047000003
:1001C00070B5054C054D03E0206800198047241DDB
:1001D000AC42F9D170BD00004C3100085431000828
:1001E000F0B507460846584087B0C00F0490480055
:1001F0000E46590040084908BC1A884105D23846C5
:1002000031461E4617460B4602465800400810432A
:1002100003D13846314607B0F0BD300D039040059C
:100220005900400D490D0590401A029040286DDAA2
:1002300018030121000B090508430190049800925E
:10024000002805D001995242002088410092019077
:10025000029840210A1A0199009800F0CBF905464E
:100260000C46684607C800F0E6F9C0197141039AC8
:100270000E0D0023D71756401A467A40164340D039
:10028000049A002A29D0029A012A039A11DC120545
:10029000C01A914101263605001C7141D20F059EFE
:1002A000D2070093019202962A46234600F005FBEE
:1002B000B1E71605224A0F46B218C01AB74101210C
:1002C0000905001C4F4100187F411146181879415B
:1002D000E20F10436D19644113E0E2076D08154306
:1002E0006408C2071443039A01261205C01A9141FB
:1002F0003605001C7141CE07400830434908C0183C
:1003000051412A46234600F0CBFA84E704980122A3
:100310004000C117121A00238B4104983146C417BC
:10032000381AA141EFE730B40124E407634030BC40
:1003300056E730B40124E407614030BC50E70000C8
:100340000000E0FFF0B51FB488B00B9909980024B5
:1003500048400999C00F490049080991C0070B9905
:100360000090490049080B9109990898A64608434E
:1003700003D00B990A98084303D1002001460DB021
:10038000F0BD099801244000420D4800410D099834
:1003900024050003000B204309900B980003000B79
:1003A00020430B9050181A4940180022019014461F
:1003B000104601E0032801DA034600E003239C46CF
:1003C000C11A0AAE0AE05F0008ADED5B4F00F75BB3
:1003D0007D430027AA187C415B1E491C6145F2DD64
:1003E000410004AB5A522104120C0A43240C401C55
:1003F0000828DFDB01980290009970460191009077
:10040000059B049A0799069800F057FAB7E7000091
:100410000DFCFFFFF0B50C465C4085B0E40FE4072F
:1004200003944C000026640859009446490802468B
:100430000296224321D062460A431ED06200570D25
:100440004A000E032303550D012402462C492405BE
:10045000781B1B0B360B4018234326436146009044
:100460001C46501AB44103D30098401C009002E08F
:10047000921800985B41002803DA0020014605B07D
:10048000F0BD0020012109050746864611E06446BB
:100490001D46141BB54106D36546521BB341744635
:1004A00007430C43A646CD07400849082843921845
:1004B0005B4105460D43EAD11046184313D0604610
:1004C000194650407140084303D100220123DB0745
:1004D00009E06046101AB34102D20122002302E073
:1004E0000122D2435310009874460105381C614123
:1004F000029C039D0019694100F0D2F9BFE700009A
:10050000FD03000070B54B005B0803430BD04B00AC
:100510005C0D002633466542B341D417AD1AA341A2
:1005200002DB0020014670BD12053018514170BD3C
:100530000EB505490291002100910A460B46019132
:1005400000F0BBF903B000BD3304000070B5CD0F5F
:100550004A0009030123090B1B0519430B4BED0747
:100560000024520D9A4201DA002070BD074B34334B
:100570009A4203DC9A1A00F04DF802E0044951183F
:1005800088402C43F1D0404270BD0000FF030000C2
:10059000CDFBFFFFC20FD207400040080BD0C10DBA
:1005A0000723DB01C91840020905400A1143C208AC
:1005B000400711437047002001467047CB0FDB070F
:1005C000490010B5490802460A4307D00A0D07241E
:1005D0000903E401090B121B002A01DC002010BDF5
:1005E000C900440F0C43C100E018D205801800F088
:1005F00035F810BD10B5202A04DB0146203A9140A1
:10060000002010BD914020239C1A0346E34019436B
:10061000904010BD10B5202A04DB0846203AD04097
:10062000002110BD0B46D340D0402024A21A914097
:100630000843194610BD10B5202A06DBCB17084623
:10064000203A1041C1170B4306E00B461341D0403E
:100650002024A21A91400843194610BD002904DA4B
:10066000401C490001D140084000704770B400248C
:10067000050C05D11024000402D1002922D0112438
:10068000050E01D108340002050F01D1241D00011F
:10069000850F01D1A41C8000002801DB641C4000F0
:1006A000002908D020252E1B0D46F540A14000D082
:1006B0000121294308431B1B0106DB1D000A002BF7
:1006C00002DA002070BC7047DB051818801800297A
:1006D000F8DA401C4900F5D170BC40084000704772
:1006E000F8B502464A40D40F42004B0052085B085E
:1006F0009A4202D20246084611464A0023D0C30D50
:100700004A00DDB2120EAD1A202D35DA490201265B
:10071000490AF6058A19002C00D0524220214F1BAD
:100720001146B9402A411018C20D9A4221D0002C1E
:1007300017D0012D08DCDA05801AD20F8019D207F4
:10074000DBB2FFF793FFF8BDDA05801A0123400002
:100750001B06C01880185A428018CA0F104349005F
:1007600007E04908C2071143DA05801A80194008DA
:100770008018FFF773FFF8BD61000122511A001BBA
:10078000F7E70122D2075140AAE70122D2075040E1
:10079000A6E7024670B54A40D30FDB0740002DD0D4
:1007A0004A002AD0010E140E091900021202400A52
:1007B000520A8418E50104465443000A120A2E0422
:1007C0005043A4194219200CC543AA18120C012544
:1007D0007F39521CAD0352191204240400D0521C5C
:1007E000104301D44000491EC2B20C06C0092018B3
:1007F000401C4008802A02D003E0002070BD400861
:100800004000002900DA0020184370BD70B5024690
:100810004A40D50F40004A00ED0740085208002822
:1008200014D0002A12D0C40DD30D41020120C005FE
:100830005202490A520AE41A091812187D349142E8
:1008400001D3641C00E04900002C01DA002070BDD7
:100850000023914201D3891A03434008490000282C
:10086000F7D100290AD0914202D10121C90705E040
:10087000914201D2012101E00121C943E005C018E4
:100880004019FFF7EBFE70BD420005D04200120E8A
:1008900052428A4201DB00207047C90508187047A0
:1008A00010B5002B08DA0024401C614192185B410E
:1008B0001A4301D14008400010BDF0B51FB482B00A
:1008C00005460C0003D0084602F0A2F902E002F04F
:1008D0009FF920300246009021462846FFF78AFE05
:1008E000049B059A04460F4618431143084303D15D
:1008F0002046394607B0F0BD1846104317D000987F
:1009000040210A1A18460599FFF784FE05460E464F
:10091000009A05990498FFF76DFE084301D0012065
:1009200000E00020C11705430E432C4337430099D4
:100930000E986305401A7905E40A0A3000220C4338
:10094000FD0A002802DA00200146D3E7010510194C
:1009500069410C9C0D9D00196941FFF7A1FFC9E792
:10096000C217C10F504010B54018CA079623002186
:10097000FFF77CFE10BD0000064C0125064E05E089
:100980002046E36807C82B4398471034B442F7D396
:10099000FFF79AFB2C3100084C3100080122D203EA
:1009A0000029C16801D0114300E09143C160704744
:1009B000836A0B438362426170470029816801D0DA
:1009C000012200E00222114381607047064910B500
:1009D000884208D144150121204600F059F9002130
:1009E000204600F055F910BD002401408268002126
:1009F0000123DB071A4382600F231B038268491C13
:100A0000D20FD207994201D0002AF7D1816800297C
:100A100001DB006C704700207047006C80B27047AB
:100A200002460020CB0104D5926801231B069A439D
:100A300000E012680A4200D00120704730B5C26859
:100A4000084B8C681A400B680D792343CC686D0302
:100A50002C4323430C69496923430B431343C3606D
:100A600030BD000003D2FFFF816804221143816082
:100A70007047012292030029C16801D0114300E0B0
:100A80009143C1607047000070B516488169FF2529
:100A9000013529438161144CA0690120A06100F057
:100AA0002BF826461C36002804D03068002801D0D8
:100AB00030688047012000F019F8022000F01CF88F
:100AC000002804D07068002801D070688047022098
:100AD00000F00CF80020A061024820300189294371
:100AE000018170BD000800485000002001494861A4
:100AF0007047000000040140034A0146526900208B
:100B00000A4200D00120704700040140F0B50022E5
:100B1000032501230C6893401C409C422AD10C7988
:100B2000012C01D0022C12D1876854002E46A64019
:100B3000B74387604E79A6408468264386608488E0
:100B40009C43848084888B7993401C43848006680E
:100B500053002C469C40A64306600E7907689E40D1
:100B60003E430660C668A643C660CC799C40C36815
:100B70001C43C460521C102ACBD3F0BD4B07DB0EC4
:100B80009A40C90810B589000818016A0F249C40D2
:100B9000A1430162016A1143016210BD30B5827840
:100BA00001240178002A15D08B080E4A9B009A1860
:100BB00013688907C90EFF258D40AB434578AD0703
:100BC0002D0E8D401D4315600078C006C00E844078
:100BD000054804E0C806C00E844003488030046025
:100BE00030BD000000E400E000E100E08307FF22E8
:100BF000DB0E9A408907090E994000280BDA00079E
:100C0000000F0838830808489B001818C3699343ED
:100C10000B43C3617047830804489B00181803689E
:100C200093430B430360704700ED00E000E400E0F5
:100C3000044A0029516901D0014300E08143516118
:100C40007047000000100240044A0029D16901D019
:100C5000014300E08143D161704700000010024071
:100C6000044A0029116901D0014300E08143116168
:100C70007047000000100240044A0029916901D029
:100C8000014300E081439161704700000010024081
:100C9000044A0029D16801D0014300E08143D160BA
:100CA0007047000000100240F8B5334E04467068EB
:100CB0000C21324D084003D0042801D0082801D06F
:100CC000256012E0716870680122890212040F0F1A
:100CD0001040BF1C00281CD0F06A0107090F491CF6
:100CE0002846FFF707FA784320607068244B000617
:100CF000000F1A5C20680146D1406160726852059D
:100D0000520F9A5CD140A160326BD20505D41D4AC6
:100D100009E01D4847432760E7E77268520401D4A1
:100D20004A0800E08A08E260326B184B520603D48E
:100D3000164A1232226100E02361326BD20601D4DE
:100D4000656100E06061326B92070FD0316B8907FB
:100D5000890F01290CD0306B8007800F022809D041
:100D6000306BC043800700D1A561F8BDA161F8BD1B
:100D7000A061F8BDA361F8BD0010024000127A0026
:100D800000000020809FD50000093D000080000089
:100D90001CB500232248009301930168012212042C
:100DA0001143016051000524240302680A400192A6
:100DB000009A521C0092019A002A02D1009AA24283
:100DC000F3D10168890328D501210191154A112128
:100DD0001160416841604168416041683F221204EE
:100DE000914341604168112212041143416001683E
:100DF000012212061143016001688901FCD5416896
:100E000089088900416041680222114341604168BC
:100E10000907890F0229FAD11CBD01931CBD0000EE
:100E2000001002400020024002488168491C816095
:100E3000704700005000002010B5144801680122DE
:100E4000114301604168124A114041600168114A32
:100E500011400160016801229204914301604168E0
:100E60003F22120491434160C16A09090901C1622C
:100E7000016BFF22543291430163416B49084900E1
:100E8000416300218160FFF783FF10BD0010024025
:100E90000CB8FFF8FFFFF6FE0029018802D00122FE
:100EA000114301E0490849000180704740300029A2
:100EB000818803D00122D203114301E04904490C87
:100EC00081807047254910B5884202D10121C414A0
:100ED00030E001218907884206D101210846FFF749
:100EE000BFFE0021012008E01D49884208D10121F0
:100EF0000220FFF7B5FE00210220FFF7B1FE10BD72
:100F00001849884206D101211020FFF7A9FE0021CF
:100F10001020F2E71449884207D1841501212046A8
:100F2000FFF79EFE00212046E7E71049884209D1DD
:100F300001210C042046FFF7ABFE00212046FFF7FD
:100F4000A7FE10BD0A49884202D101214C04F1E7F5
:100F500008498842F5D101218C04EBE7002C0140BF
:100F6000000400400010004000200040004001400C
:100F7000004401400048014070B5028C5208520004
:100F80000284048C8288038B7025AB439B080D88F8
:100F90009B001D4302239C438E894B882643104CA3
:100FA0003343A04208D00F4CA04205D00E4CA042C3
:100FB00002D00E4CA0420DD10824A343CC891C437F
:100FC00004239C438B882343094C22400C8A1443FE
:100FD0004A8A22438280058389684163038470BD05
:100FE000002C014000400140004401400048014005
:100FF000FFFC0000028B08239A430A4302837047D8
:1010000070B5028C10239A430284048C8288038B6F
:101010001A4D2B400D782D062D0C1D4320239C438B
:101020008B891B051E0C4B8826431B051B0C144C7F
:101030003343A04202D0134EB04219D1124E324077
:101040000E8AB604360C3243A04211D18024A34349
:10105000CC892405240C1C4340239C438B881B050E
:101060001B0C2343094C22404C8AA404240C224329
:101070008280058389688163038470BDFF8C0000D2
:10108000002C014000400140FFFB0000FFF7000082
:10109000028B034B09021A40114301837047000081
:1010A000FFF7000030B5028C124B1A400284058C09
:1010B0008288838B104C23400C782406240C1C431C
:1010C0000E4B1D400B7B1B071B0C2B438D782D07F4
:1010D0002D0C1D430A4B984205D10A4B13400A8A36
:1010E0009205120C1A438280848389680164058406
:1010F00030BD0000FFEF0000FF8C0000FFDF0000AC
:10110000002C0140FFBF0000828B034B09021A40F4
:101110001143818370470000FFF700000021018028
:101120004180818081608181C181018241827047DB
:10113000028808239A43028002880A43028070478B
:10114000828870239A43828082880A438280704713
:1011500010B50288144B984206D00124A407A0427F
:1011600002D0124CA04203D17024A2434C882243E7
:101170000F4CA04203D00F4C22400C892243028026
:101180004A68C2620A880285984208D00A4A904298
:1011900005D00A4A904202D0094A904201D1897A88
:1011A00001860121818210BD002C01400004004015
:1011B00000100040FFFC00000040014000440140DE
:1011C000004801400021C9434160002101800181A4
:1011D000418081727047000070B50F488169FF241B
:1011E0000134214381610D4D2021284600F04AF849
:1011F0000028F9D0284600F0A7F8C0B2084900F04E
:101200004DFA0020401C6428FCD30348203001899B
:101210002143018170BD00000008004800380140F2
:101220008003002070B50F488169012464022143C6
:1012300081610D4D2021284600F024F80028F9D0C6
:10124000284600F081F8C0B2084900F027FA0020D3
:10125000401C6428FCD303482030018921430181CC
:1012600070BD000000080048004400400804002051
:101270000029016802D00122114301E04908490018
:10128000016070470246D26900200A4200D0012066
:10129000704710B50B041C0E01238B40022C02D0AA
:1012A000032C02D002E0001D00E008300168002A93
:1012B00001D0194300E09943016010BD30B50446E8
:1012C000006887B00D464008400020606068032138
:1012D00009038843A9680143616020681749EA68E7
:1012E0000840696811432A69024311432160A068DC
:1012F00003210902884369690143A1606846FFF739
:10130000D3FC0F48844201D1069800E0029821687E
:101310000904296800D54000FEF7ECFE2A6852084F
:101320008A4200D8401C2168090404D50107054AF7
:10133000490F10400843A08107B030BDF3E9FFFF1B
:1013400000380140F0FF0000808CC005C00D7047E0
:10135000C905C90D0185704710B50248FFF75DFB4F
:1013600010BD000000240140F3B591B004461421E3
:10137000FEF7D6FE0E46A01B282817D004DC002856
:1013800007D0142823D10BE03C2815D064281ED1A7
:1013900018E001214804FFF74BFC0925ED0616E093
:1013A00001218804FFF744FCB04D10E00121C8047E
:1013B000FFF73EFCAE4D0AE001210805FFF738FCBF
:1013C000AC4D04E001218805FFF732FCAA4D01274E
:1013D0003846B04000901298002600287ED00128A0
:1013E0007DD002287CD003287BD101214802FFF761
:1013F00043FC01210220FFF727FC0321684601710D
:10140000C67169462846FFF781FB9C4D2846FFF7C9
:1014100059FD08A8FFF7D6FE0BA8FFF77FFEFF20B7
:101420000990684606840685468408A92846FFF781
:101430008FFE20212846FFF783FE914D2846FFF7B7
:10144000C5FA68460296077328150490C0200590D7
:10145000069602A907962846FFF7F0FA0322E91438
:101460002846FFF7A5FA2846FFF7C0FA01212846CB
:10147000FFF7FFFA01212846FFF790FA01212846DD
:10148000FFF79BFA7F492846FFF7CAFA0028F9D0F0
:1014900001217A48FFF700FD2846FFF7E5FA129888
:1014A000022860D1042C09D00B2C07D0192C05D0B0
:1014B0001C2C03D01D2C01D01F2C54D16846068152
:1014C000468171487D210068C9000546FEF712FE7D
:1014D000401E039068460682867403E036E039E0D9
:1014E00043E040E0702107968182C7820421018396
:1014F00002210184CF0146848784C684FF21B9314B
:101500002846FEF7F7FD401E85B21C2C58D036DC6D
:101510005E4E042C6BD00B2C7ED0192C23D10121D4
:101520000220FFF791FB012205215048FFF726FB1F
:10153000524C02A92046FFF70BFE05A92046FFF7F3
:101540005FFD08212046FFF7A3FD36E069460E71D6
:10155000CF7102E069460F71CE718E710320487120
:101560002846FFF7D3FA13B0F0BD02206946087190
:101570008E71032048712846FFF7C8FA92E71D2CA8
:101580000FD01F2CEFD101210846FFF75DFB02228F
:101590000B213648FFF7F2FA0124A40702A92046DE
:1015A00059E001218804FFF767FB022209212F4837
:1015B000FFF7E4FA02A9364C0DE00021204631E0A5
:1015C00001214804FFF758FB022208212748FFF7B2
:1015D000D5FA304C02A92046FFF7BAFD05A92046EE
:1015E000FFF7CAFC08212046FFF704FDE5E70121CB
:1015F0003846FFF729FB042209201146C006FFF7F1
:10160000BDFA254C02A92046FFF7A2FD05A92046F8
:10161000FFF7B2FC082100E010E03046FFF774FD50
:1016200000213046FFF784FD01212046FFF734FCFE
:1016300001212046FFF73AFCE56294E70121C80248
:10164000FFF71AFB092002220B21C006FFF796FACA
:1016500002A934463046FFF77BFD05A92046FFF777
:1016600021FD08212046FFF74FFDA6E700040048B2
:1016700000080048000C0048001400480004004026
:1016800000240140010000013C000020002C01402A
:1016900000480140004401400020004038B50B469E
:1016A00080331A681446521CD5176D0EAD18ED091B
:1016B000ED01521B00925A68009DAA4202D00855C3
:1016C0000098186038BD10B5044601F08DFCA042AA
:1016D00002D2001B401E10BD001B10BDF7B5864690
:1016E000002082B084460646024673469D5D761C05
:1016F0009C5D761C9B5D761C002D40D0002C02D09A
:10170000002B05D006E0012294460222002301E0CE
:1017100001229446AF0801972709AD07AD0EED19D8
:101720009F092407A40E9B06E4199B0E0093049FB7
:10173000031DBB4203DD0020C04305B0F0BD114BCB
:101740005F68019BFB5C0B540E4B401C5B685B5D50
:101750000B540C4B401C5B681B5D0B54094B401C2D
:101760005C68009BE35C0B54401C3D2302E0841A40
:101770000B55521E002AFADC6346002BB5D000221E
:101780000A54DAE71000002070B50C460546142113
:10179000FEF7C6FC681A0122002C0CD0282832D093
:1017A00027DC00282CD0142804D11A4883698A40E9
:1017B0001343836170BD28280FD006DC00280AD0AF
:1017C0001428F7D1134B203308E03C280BD06428B1
:1017D000F0D1114808E0114806E0114B18898A4001
:1017E0001043188170BD0F4803898A401343038159
:1017F00070BD3C280AD06428FAD107482038D5E7C4
:101800000920C006D2E706482038CFE7054820382F
:10181000CCE70000000400482014004820000048E5
:1018200020080048200C0048F8B561A000F02EFD0B
:10183000002401212D20FFF7A7FF322001F0D5FA67
:1018400000212D20FFF7A0FF322001F0CEFA641C0A
:10185000032CEEDB5A4D5B4E002430194030007CE7
:10186000002801D0012100E00021A0002858FFF746
:101870008BFF641C2406240EEFD030780025410035
:1018800040182C46871938192030817E407900F0A5
:1018900003F9002801D0012503E0641CE4B2032C05
:1018A000F1D349A14C4800F043FF464C0A22403492
:1018B000E17B494800F047FF48A1474800F038FF66
:1018C0000A222946444800F08BFFE07B0127A8420A
:1018D0000DD0B07F002805D03948483000F0D6FC44
:1018E0004348077043A000F0D1FC0020B077E573B7
:1018F000B07F012824D1306AFFF7E5FE47498842CE
:101900001ED947A000F0C2FC4BA1334800F010FFE5
:101910000A223148316A00F03AFF4FA12E4800F008
:1019200007FF01F061FB01460A222B4800F060FF2F
:10193000B07F002801D02E4807700020B07704E067
:10194000B07F002801D0012400E00024654047A1B9
:10195000214800F0EDFE0A2221461F4800F0F3FE68
:1019600048A11D4800F0E4FE0A2229461A4800F06A
:1019700037FF707F01280ED002280ED000212B20C7
:10198000FFF702FF00212A20FFF7FEFE00212D2095
:10199000FFF7FAFEF8BD002100E029462B20FFF7F3
:1019A000F3FE29462A20FFF7EFFE2946EFE7000065
:1019B0005570646174696E672072656C617973003B
:1019C000043000082C03002057617320696E2077D3
:1019D000696E646F773A2000900400202C206E6FAF
:1019E0007720696E2077696E646F773A2000000077
:1019F0001000002053657474696E67202761647657
:101A0000616E63652720737461747573206261630E
:101A10006B20746F206E6F726D616C00307500000A
:101A200043616E63656C6C696E6720746865202B1A
:101A30003120686F757200004C61737420616476A8
:101A4000616E636520737461747573206368616E81
:101A5000676520776173200020616E64206D696C7A
:101A60006C6973206E6F772069732000497320774B
:101A7000696E646F77206F76657272696464656EF3
:101A80003A2000002C2061637469766174652072CD
:101A9000656C6179733A200070B50A4E0C460546B4
:101AA000F07A0A21FEF726FBB17A0A225143401848
:101AB000C0B2A84203D3A04201D2012070BD0020D1
:101AC00070BD00002C030020F0B5AB4D97B004466C
:101AD000A849AA48296200F02BFE54216846FEF767
:101AE0003AFB217868463039641C017020780A225C
:101AF00030386178504330380818C1B26846817276
:101B0000E0780A2330382279584330381218684672
:101B1000C272641D1A46994800F011FE98A19748B8
:101B200000F006FE6846C17A0A22944800F007FEDB
:101B3000924800F065FE03A8102221461590FEF79A
:101B400021FB217C684664391134417220780121DF
:101B50000222002330287FD0312868467FD0427788
:101B6000641C207831287CD0322868467CD083776A
:101B70006078A41CC107C90F10AA80071174C00F98
:101B8000507400216E464A0000208A189719237865
:101B90003A185B1E203253716378A41C5B1E401CF4
:101BA00093760328F3DB491C0729ECDB75A1734806
:101BB00000F0BEFD684601780A22704800F008FE79
:101BC00071A16E4800F0B4FD6846817A0A226B4824
:101BD00000F0B5FD6AA1694800F0AAFD6846C17A27
:101BE0000A22664800F0F4FD68A1644800F0A0FDF8
:101BF0006248159900F0E4FD66A1604800F098FD88
:101C00006846417F0A225D4800F0E2FD63A15B481F
:101C100000F08EFD6846817F0A22584800F0D8FD0A
:101C2000544F00247F1F394654482F6200F080FD36
:101C30000A222146514800F086FD55A14F4800F088
:101C400077FD30194030007C00280FD055A10EE000
:101C500002E004E005E007E06846437780E741776B
:101C60007EE76846817783E7827781E74EA1434824
:101C700000F0A6FD641C012CD5DB00273D493E4841
:101C8000093901623D4800F053FD0A2239463B48BC
:101C900000F059FD3AA1394800F04AFD78003918A2
:101CA000002468460E183EA1344800F041FD351965
:101CB000203569790A22314800F045FD3BA12F48C3
:101CC00000F036FDA97E0A222C4800F03CFD641C81
:101CD000032CE8DB294800F093FD7F1C072FCDDBA8
:101CE000334C6946A07F897F884202D001F07CF99D
:101CF00008906846007820706846407A60726846AE
:101D0000807AA0726846C07AE072294810220C30AE
:101D10001599FEF737FA6846407F60776846807FFE
:101D2000A07700206A46111840310B7C2118403101
:101D3000401C00060B74000EF5D000214A008A18E2
:101D400000206B461719D61833183A182033203262
:101D50005D795571401C9B7EC0B293760328F3D306
:101D6000491CC9B20729E9D301F03EF9024988604C
:101D700017B0F0BD113000081000002090040020C2
:101D80003A000000443A0000543A00004D4F5444D9
:101D90003A200000417070733A0000004164763AC6
:101DA00020000000590000004E0000002D0000003F
:101DB0002C03002070B52920FFF7CEFA0646FEF767
:101DC000B7FB0022404BFEF725FB0A22FEF79AFBE9
:101DD00002460B4600203D49FEF71CFB00223C4B0F
:101DE000FEF7A1FAFEF7EAFB01F030F8FEF7D2FBAE
:101DF00004460D46374A384BFEF7A4FA22462B46D6
:101E0000FEF7A0FA354A364BFEF7EAF922462B4692
:101E1000FEF798FA334A344BFEF7E2F902460B46D6
:101E200000203249FEF7F6FA314A324BFEF77BFAD0
:101E3000FEF78CFB054630A1334800F079FC0A22FE
:101E40003146314800F07FFC30A12F4800F070FC93
:101E50000A2229462C4800F0C3FC2D4C2D4B626908
:101E60000020002A1BD08100CE1876685E50401CEE
:101E7000C0B20228F5D3002210469D608100595857
:101E8000401C8A18C0B20328F8D303211046FEF77D
:101E900047F9214E7168814204D0012503E0810099
:101EA0005D50E4E7002570600120307201F09CF87D
:101EB00060611AA1144800F03BFC0A2212487168C4
:101EC00000F08EFC284670BD00FCAF4000886341E6
:101ED0000088C340190D1714EB88773EC2C3B46F56
:101EE000EEAF2E3F90B8DE6EFD7F523F0000F03F18
:101EF000666666666612714054656D702073616D2A
:101F0000706C653A0000000090040020203D200025
:101F100010000020780000202C03002053746F7202
:101F2000696E67206E657720616D6269656E7420E9
:101F300074656D702061732000000000F1B560A031
:101F400000F0A4F966A000F0A1F96C4C01250098FE
:101F500000280FD06AA000F099F974487249016214
:101F6000734A744800F034FB074673A000F08EF902
:101F700072A069E07AA000F089F96C480078002826
:101F800001D0592000E04E2020705C48A030417FF5
:101F9000491C6170817F491CA170417A491CE17024
:101FA00004210022554E53000020A036D3189F195B
:101FB0003B1820335E79401C761C66549B7E491C7E
:101FC0005B1C6354491CC0B20328F1D3521CD2B22B
:101FD000072AE7D349485A22A03000791E306054BE
:101FE000491C00206054454944484631FFF776FBC0
:101FF000424865A14630FEF7B9F84B494B4E1631C1
:102000006248316200F094FB3C49604800F090FB6C
:1020100045495E482031316200F08AFB37495B4810
:10202000463100F085FB404958482139316200F0C3
:10203000C7FB57A000F02AF930493D4A46313D48D8
:1020400000F0C6FA074657A000F020F93649374E8F
:1020500008394E48316200F06BFB0A2239464B4882
:1020600000F0BEFB002F09D0F069401CF06103288E
:1020700010DB304800F031FB002510E02D4800F067
:10208000A3FAFFF721FD0025357000F0ADFFF561E3
:102090003061F1E7012802DB264800F01FFB7D20BC
:1020A000C00000F0A2FE00F09FFFF060FFF7BCFB55
:1020B00046A000F0EBF8002D00D048E7F8BD000086
:1020C00073796E6368726F6E697365576974684976
:1020D0006E7465726E65743A207374617274000078
:1020E00073796E6368726F6E697365576974684956
:1020F0006E7465726E65743A310000008C020020C7
:1021000073796E6368726F6E697365576974684935
:102110006E7465726E65743A666F726365202873BB
:102120007461727429000000213000081000002042
:10213000C8320000840000200000000073796E6344
:1021400068726F6E69736557697468496E746572F9
:102150006E65743A666F7263652028656E64290047
:1021600073796E6368726F6E6973655769746849D5
:102170006E7465726E65743A6E6F726D616C202854
:1021800073746172742900002A000000900400201A
:1021900043616C6C696E672073656E6472657175FE
:1021A0006573740073796E6368726F6E69736557D7
:1021B000697468496E7465726E65743A6E6F726D9B
:1021C000616C2028656E64290000000073796E63DD
:1021D00068726F6E69736557697468496E74657269
:1021E0006E65743A20656E640000000070B51A4C8C
:1021F000A068FFF768FA1949194D884206D919A154
:102200001E4800F0DDFA00F0EFFEA0606069FFF705
:102210005AFA1B49884202D8287A002805D1FFF7CC
:10222000C9FD002801D0FFF7FFFA0D4820300079E2
:10223000002810D0E068FFF746FAA16988420AD961
:102240000A220E4800F0A3FA0EA10C4800F0B8FADA
:102250000020FFF773FE70BD10000020204E00002C
:102260002C0300206C6F6F703A20496E6372656DAD
:10227000656E74696E672074696D65009004002056
:1022800088130000526573796E63210010B504460F
:1022900000F0A2FE01460A22074800F058FA07A102
:1022A000054800F045FA2146034800F089FA024843
:1022B00000F04DF910BD0000900400203A2000000D
:1022C000F8B5E1210902504800F03CF9504C4F4864
:1022D00020624D4800F094FA4B48216A00F070FAF1
:1022E0004B21C9014B4800F02DF901213020FFF7A7
:1022F0003BF801213120FFF737F803212920FFF7B0
:1023000033F801212B20FFF72FF801212A20FFF7B6
:102310002BF801212D20FFF727F83C4E0024253E05
:10232000A50070590121FFF71FF870590021FFF730
:102330002BFA641C2406240EF2D001212D20FFF775
:1023400023FAFF24F534204600F04FFD00212D2014
:10235000FFF71AFA204600F048FD01212D20FFF773
:1023600013FA204600F041FD00212D20FFF70CFA62
:10237000204600F03AFD00212B20FFF705FA00214E
:102380002A20FFF701FA244C012020712546152050
:10239000203D68720C20A872022068770020287205
:1023A000FFF708FD00203C223F26A023AA2741007A
:1023B0004118491920314A718E768B71401CCF76B5
:1023C0000728F4DB792565717A25A5767C25A5712A
:1023D0007D255020E576207253216177A322637218
:1023E000A2770EA0FFF752FF11A0FFF74FFF064A9A
:1023F0000849144800F06CF90120FFF79FFD12A076
:10240000FFF744FFF8BD00009004002029300008C9
:10241000100000209C0400204C03002043616C6CE1
:10242000696E672072746320696E69740000000031
:10243000446F6E6520776974682072746320696EDA
:1024400069742E0084000020536574757020636FDA
:102450006D706C6574652E00F3B501218BB0480476
:10246000FEF7E6FB2A490B9888420AD14615041567
:102470000A200121099009271B258803FEF7FCFB90
:102480000CE02449884241D1022009900424082606
:1024900003271C2501210004FEF7D6FB0920012299
:1024A000C0060999FEF76AFB092001223946C006D9
:1024B000FEF764FB34430094032168464171022116
:1024C0000171002484710126C67109206946C00685
:1024D000FEF71CFB012210490B98FEF7DAFE684656
:1024E00005724472867202A8FEF758FB0C98089495
:1024F00003900C20069407900494059403A90B986C
:10250000FEF7DCFE01210B98FEF7B2FE0DB0F0BD28
:102510000038014000440040050105008068024683
:102520008032136851688B4202D10020C04370474B
:10253000405C491CCB175B0E5B18DB09DB01C91A39
:102540005160704710B54068FFF786FF10BD806886
:10255000803041680160704770B50D4604468021A7
:102560006068FEF78FFE0028F9D029466068FEF704
:10257000EFFE40216068FEF785FE0028F9D070BDAF
:102580008068803001684068081A8030C117490EA1
:102590000918C909C901401AC0B27047064A026049
:1025A000002904D00549416005498160704705490B
:1025B000416003498839F8E7DC30000800440040F6
:1025C0000804002000380140FF30A13070470000AF
:1025D000FEB504460E46743015461AA10746FDF7AF
:1025E000E5FD31463846FDF7C1FD1FA13846FDF730
:1025F000BDFD2B4627A22AA1204600F019F900288C
:1026000019D02CA000903B462CA22DA1019520466C
:1026100000F09AF9002810D02146FF312B464922BC
:10262000A131204600F0E8F9002806D0204600F04D
:1026300035FA0020FEBD0320FEBD204600F02EFA34
:10264000F9E70000474554202F68656174696E679B
:102650002F726561646F6E6C79322E7068703F44C2
:102660004154413D0000000020485454502F312E69
:10267000300D0A486F73743A206176722E6D75734F
:102680006963627973696E65732E636F6D0D0A0DF0
:102690000A000000636869636B656E7769726500A4
:1026A0004D69636861656C20616E64204B656C6C7C
:1026B000790000004F525A2100000000383000001D
:1026C0003230382E3131332E3136322E333600004F
:1026D00010B5026700F044FA10BD704770477047AC
:1026E000F0B51746002489B00A460646002911D0E5
:1026F0006D4639461046FDF7FDFC2955641C020065
:10270000F7D1002C0AD028192038C07F0A2807D218
:10271000303006E00022302100F00DF809B0F0BDA5
:102720003730C1B20022304600F005F8641EE8E7F9
:1027300002685268104710B500F00DF810BD10B5D2
:1027400000F025F810BD10B500F005F810BD10B56B
:1027500000F01DF810BD70B50C460546002A03D0E8
:102760000A2A07D0D2B20FE02868C9B20268284608
:10277000904770BD002C04DA00222D21FFF7DBFF0B
:1027800064420A2221462846FFF7AAFF70BD10B511
:10279000002A03D0D2B2FFF7A3FF10BD0268C9B26E
:1027A0001268904710BD70B50C46054604E02868D5
:1027B000641C02682846904721780029F7D170BD33
:1027C00010B50446FFF7B4FF204600F019F810BD1D
:1027D00010B50446FFF7B3FF204600F011F810BD16
:1027E00010B50446FFF7AFFF204600F009F810BD12
:1027F00010B50446FFF7ABFF204600F001F810BD0E
:1028000010B5044600220D21FFF795FF00220A2192
:102810002046FFF790FF10BD10B50446C26E083089
:102820001154E06E6421401CFDF77AFCE16610BD96
:10283000FFB581B01F4615460E462B4B2BA22CA18F
:10284000019800F03DF900284AD07D24E400234699
:10285000324628A1019800F033F9002807D023461A
:1028600022A227A1019800F02BF9002837D13B467E
:1028700026A228A1019800F023F9002832D023468F
:1028800026A229A1019800F01BF900282AD029A12D
:10289000019800F0E5F83146019800F0E1F828A130
:1028A000019800F0DDF82946019800F0D9F83B4680
:1028B0000EA224A1019800F003F9002812D02346AB
:1028C00032460CA1019800F0FBF800280AD02346FC
:1028D00006A20BA1019800F0F3F8002800D0012017
:1028E00005B0F0BD0020FBE7881300004F4B00004F
:1028F0004154000041542B43574A41503F000000CF
:1029000041542B4349504D55583D31007265616427
:102910007900000041542B52535400006E6F206325
:1029200068616E676500000041542B43574D4F446A
:10293000453D330041542B43574A41503D2200004E
:10294000222C220022000000FFB583B00E461C4658
:1029500017461AA10D9D039800F082F8314603989E
:1029600000F07EF81BA1039800F07AF82B461AA21B
:102970003946039800F0A4F800281DD02046FDF742
:102980000EFC024616A1684600F02EF915A1039828
:1029900000F066F87D23DB0016A26946039800F07C
:1029A0008FF8002808D02B4621460C9A039800F097
:1029B00087F8002800D0012007B0F0BD41542B4318
:1029C000495053544152543D342C22544350222CEC
:1029D00022000000222C00004C696E6B6564000030
:1029E0002564000041542B43495053454E443D3427
:1029F0002C0000003E000000FFB581B016460C46DA
:102A0000054600F0F1FA009017E06868FFF786FDD0
:102A1000C7B2002239462868FFF78DFE2770641C74
:102A2000761E04D100202070012005B0F0BD68683A
:102A3000FFF7A6FD0028E8D10098FEF744FE014606
:102A400004988142F3D303A12868FFF771FE0020A8
:102A5000EBE700004F7574746174696D65000000E8
:102A600070B50D460446006807A1FFF761FE2946D0
:102A70002068FFF75DFE07A12068FFF759FE294691
:102A80006068FFF755FE70BD53656E64696E673A06
:102A9000205B00005D2E2E2E0000000010B57D236F
:102AA000DB0002A202A100F00BF810BD4F4B0000AA
:102AB00041542B434950434C4F53453D3400000093
:102AC000F8B51D4616460F46044602E06068FFF75B
:102AD00025FD6068FFF754FD0028F7D139462046F0
:102AE000FFF7BEFF0AA16068FFF722FE2A463146C3
:102AF000204600F039F80028206804D005A1FFF72F
:102B000017FE0120F8BD05A1FFF712FE0020F8BD59
:102B10000D0A00007B7961797D00000062616C6CB8
:102B200073000000FFB581B00F4608460A9EFDF70E
:102B300036FB05460498012436180DE0301B049935
:102B4000FDF7EEFA0398405C291B795C884202D0BD
:102B5000002005B0F0BD641CAC42EFDD0120F8E7B9
:102B60000260416070470000FEB516460F460446FD
:102B700000F03AFA02900020E06620460830642116
:102B80000190FDF7E8FA1DE06068FFF7C7FCC5B2E9
:102B9000002229462068FFF7CEFD29462046FFF790
:102BA0003BFEE06E0090642339462046019AFFF711
:102BB000B9FF002801D00120FEBD6068FFF7E0FCEE
:102BC0000028E1D10298FEF77EFDB042F5D303A1C3
:102BD0002068FFF7ADFD0020FEBD00004F75747446
:102BE0006174696D650000000FB410B504A9074B4E
:102BF00002AA039800F04EF8044602A9002000F053
:102C0000EFF8204610BC08BC04B01847E12D0008BE
:102C10002021020C01D010211046020A01D00839EF
:102C20001046020901D0091F1046820801D0891EF2
:102C30001046420801D0881E7047081A704702E00B
:102C400008C8121F08C1002AFAD170477047002037
:102C500001E001C1121F002AFBD170470149086041
:102C6000704700007400002000B500210448FFF701
:102C700095FC034801210C30FFF790FC00BD0000DB
:102C80009004002010B50248FFF729FD10BD000098
:102C900084000020FFB58DB00446002596E025286D
:102CA00032D10027641C4D4A012100972378084641
:102CB000203B98400346134202D00743641CF5E7CB
:102CC00020782E2817D104200743641C20782A2856
:102CD0000CD10E98641C02C800910E900BE0009974
:102CE0000A22514330394018641C00902078014674
:102CF00030390929F3D9207800286BD0642808D00E
:102D0000692806D075281ED0109A0F9990476D1C1F
:102D10005BE00A200E99019001C90E91002802DAA9
:102D200040422D2102E0390504D52B216A4611725B
:102D3000012103E0F90704D02021F7E70BAE0B9146
:102D40000DE00021FAE70A200E99019001C90E91C9
:102D5000F7E70199FDF7CEF93031761E3170002882
:102D6000F7D103A8801B20300190780701D5009887
:102D700001E0012000900199884201DD401A00E045
:102D800000200027009006E002A8109AC05D0F996D
:102D900090476D1C7F1C0B988742F5DB04E0109A6E
:102DA00030200F9990476D1C0099481E0090002913
:102DB000F5DC05E03078109A761C0F9990476D1C71
:102DC0000199481E01900029F4DC641C2078002839
:102DD00000D064E7284611B0F0BD000009280100CA
:102DE0000A68531C0B60107070477D2110B5C90034
:102DF000484300F001F810BD38B5044600F00EF865
:102E000005498A68101900908A689042FCD3886846
:102E1000009A9042FBD338BD5000002070B5094D98
:102E2000686800280CD1084C3A2060610321081F13
:102E3000FDF7DCFE0020A061072020610120686012
:102E400070BD00005000002000E000E0F8B5012156
:102E5000C9057F220026411A120691421CD3FF2287
:102E600041001206914203D90121FDF70DFDF8BD85
:102E7000FF22D2059042FAD01102884205D90120E2
:102E8000FFF7ECFE0021084665E041005ED0162603
:102E9000F6431721FDF7F8FC0121C9044118CA15B2
:102EA000012341021B07C9184D0F7F3A7F212B05D3
:102EB000C905B6185C18D205871A304628434DD08C
:102EC00021463846FDF70CFC009021463846FDF7B8
:102ED00058FC0099FDF79AFC07460146FDF759FC9E
:102EE0002F490090FDF755FC2E49FDF7F9FB0446EC
:102EF00038460099FDF74DFC2146FDF74AFC044693
:102F00003046FDF72DFD06462749FDF742FC2749CF
:102F1000AD0079444959FDF7E3FB2146FDF7E0FB9D
:102F2000044601213846FDF7AFFC2146FDF7D8FBEA
:102F3000044630461E49FDF72CFC1E497944495988
:102F4000FDF7CEFB2146FDF7CBFBF8BD0220FFF7D6
:102F500085FE00211848FDF759FCF8BD3846FDF7FD
:102F600010FC05461549FDF714FC1549FDF7B8FBA3
:102F70002946FDF70EFC1349FDF7B2FB2946FDF784
:102F800008FC1149FDF7ACFB044629460846FDF74D
:102F900000FC2146FDF7FDFB01462846D3E7000073
:102FA00066F1CC3EAAAA2A3FF4FD05389E01000036
:102FB0000070313F54010000000080BF21ED423E0F
:102FC0000A1180BEC1ABAA3EFFFFFFBEFFF778F932
:102FD000FFF70CF9FCE7000010B5FFF71FFF0148F1
:102FE000806810BD5000002010B5FFF717FF0348A0
:102FF0007D21C9008068FDF77DF810BD50000020DC
:103000005D00000014000000446179004750494F02
:103010000050617273696E6700526573756C74203D
:1030200000535441525455500053657269616C20ED
:10303000696E69742E2E0053656E64696E67205B3D
:10304000005D2C20623634205B000000576520575D
:1030500045524520696E20612077696E646F772044
:10306000627574206E6F77207765277265206E6FAA
:103070007420736F20737769746368696E67207456
:1030800068652027616476616E63652720737461CB
:1030900074757300000000000030F13D0070643E64
:1030A0000000A33E0090CF3E0090F83E00400F3F4E
:1030B00000E0203F0000000015B78337CDE37B38E8
:1030C0000EE1C53860F69138AF5F0F38E1BC3E388D
:1030D00023F44739000000000000000059250008D3
:1030E000A7270008000000004142434445464748E6
:1030F000494A4B4C4D4E4F505152535455565758C8
:10310000595A6162636465666768696A6B6C6D6E63
:103110006F707172737475767778797A3031323373
:103120003435363738392B2F000000005431000871
:1031300000000020780000003E2C0008CC31000880
:1031400078000020300800004E2C000839FBFFFFFB
:1031500019FBFFFF00000000010203040102030449
:103160000607080900000000E83000080000000021
:103170000000000000000000000000001027000018
:10318000000000000000000000000000000000003F
:10319000006CDC02000000000000000001020304DB
:1031A0000607080900000000000000000000000001
:1031B000000000000000000000000000000000000F
:0C31C00000000000000000000000000003
:04000005080000D916
:00000001FF
